S0140000706C616E74576174657265722E7372656317
S11300000C94B1000C94E4050C940C060C94C600FA
S11300100C94C6000C94C6000C94C6000C94C60044
S11300200C94C6000C94C6000C94C6000C94C60034
S11300300C94C6000C94C6000C94C6000C94C60024
S11300400C94C6000C94C6000C94C6000C94C60014
S11300500C94C6000C94C6000C94C6000C94C60004
S11300600C94C6000C94C60000407A10F35A00A009
S1130070724E18090010A5D4E80000E8764817006D
S113008000E40B54020000CA9A3B000000E1F505AD
S1130090000080969800000040420F000000A086F7
S11300A001000000102700000000E8030000000029
S11300B06400000000000A000000000001000000CD
S11300C000002C76D888DC674F0823DFC1DFAE59E7
S11300D0E1B1B796E5E3E453C63AE651997696E87A
S11300E0E6C28426EB898C9B62ED407C6FFCEFBCFE
S11300F09C9F40F2BAA56FA5F490055A2AF75C9329
S11301006B6CF9676DC11BFCE0E40D47FEF520E65E
S1130110B500D0ED902E0300943577050080841E41
S1130120080000204E0A000000C80C333333330F9C
S1130130986E12831141EF8D2114893BE65516CF39
S1130140FEE6DB18D1844B381BF77C1D901DA4BB45
S1130150E424203284725E228100C9F124ECA1E5FA
S11301603D2711241FBECFEFD8E0DEBFCDBF11E085
S1130170A0E0B1E0E4E5F2E102C005900D92A63AF8
S1130180B107D9F70E9445030C9428090C94000088
S1130190672B09F073C08A30910511F428980895EB
S11301A08B30910511F4299808958C30910511F440
S11301B02A9808958D30910511F42B9808958E3066
S11301C0910511F42C9808958F30910511F42D9810
S11301D008958031910511F42E9808958131910587
S11301E011F42F9808958431910511F440980895DD
S11301F08531910511F4419808958631910511F4E2
S1130200429808958731910511F4439808958831EF
S1130210910511F4449808958931910511F4459894
S113022008958A31910511F4469808958E31910507
S113023011F4589808958F31910511F4599808953F
S11302408032910511F45A9808958132910511F480
S11302505B9808958232910511F45C980895833275
S1130260910511F45D9808958432910511F45E9816
S11302700895859709F073C05F9808958A309105B1
S113028011F4289A08958B30910511F4299A089550
S11302908C30910511F42A9A08958D30910511F44A
S11302A02B9A08958E30910511F42C9A08958F306D
S11302B0910511F42D9A08958031910511F42E9A27
S11302C008958131910511F42F9A0895843191058F
S11302D011F4409A08958531910511F4419A0895D5
S11302E08631910511F4429A08958731910511F4EC
S11302F0439A08958831910511F4449A08958931F7
S1130300910511F4459A08958A31910511F4469A9C
S113031008958E31910511F4589A08958F319105FD
S113032011F4599A08958032910511F45A9A089556
S11303308132910511F45B9A08958232910511F48A
S11303405C9A08958332910511F45D9A089584327C
S1130350910511F45E9A0895859709F45F9A0895BA
S1130360CF93C82F80FF07C061E070E086E190E082
S11303700E94C80006C060E070E086E190E00E9440
S1130380C800C1FF07C061E070E087E190E00E940F
S1130390C80006C060E070E087E190E00E94C800F9
S11303A0C2FF07C061E070E088E190E00E94C800ED
S11303B006C060E070E088E190E00E94C800C3FFDE
S11303C007C061E070E089E190E00E94C80006C0C7
S11303D060E070E089E190E00E94C800CF91089548
S11303E0CF93C82F60E070E082E290E00E94C800E2
S11303F08C2F0E94B00161E070E08FE090E00E94D9
S1130400C8008FE99FE00197F1F700C0000060E0A9
S113041070E08FE090E00E94C8008FE99FE00197B0
S1130420F1F700C00000CF91089580E00E94F00130
S113043081E00E94F001089580E00E94B0012FEF56
S113044089EF90E0215080409040E1F700C0000027
S113045083E00E94F0018FE19EE40197F1F700C070
S1130460000083E00E94F0018FED9BEA0197F1F711
S113047000C0000083E00E94F00182E00E94F001CD
S113048082E00E94F00188E00E94F00180E00E9476
S1130490F0018CE00E94F00180E00E94F00186E00F
S11304A00E94F0010895CF93C82F61E070E082E2CA
S11304B090E00E94C8008C2F82958F700E94B0013A
S11304C061E070E08FE090E00E94C8008FE99FE057
S11304D00197F1F700C0000060E070E08FE090E069
S11304E00E94C8008FE99FE00197F1F700C0000067
S11304F08C2F8F700E94B00161E070E08FE090E07B
S11305000E94C8008FE99FE00197F1F700C0000046
S113051060E070E08FE090E00E94C8008FE99FE007
S11305200197F1F700C00000CF910895CF93DF93B6
S1130530EC018881882331F021960E94530289912D
S11305408111FBCFDF91CF9108951092C50087E60A
S11305508093C40088E18093C10086E08093C20048
S11305602D9A0895E0ECF0E0908195FFFDCF809303
S1130570C6000895E0ECF0E080818823ECF78091D8
S1130580C6000895CF93DF93EC018881882331F06E
S113059021960E94B20289918111FBCFDF91CF9104
S11305A008951816190684F420E030E04FEF53ED57
S11305B060E3415050406040E1F700C000002F5F0D
S11305C03F4F8217930791F70895EF92FF920F938D
S11305D01F93CF93DF93CDB7DEB7C151D7420FB688
S11305E0F894DEBF0FBECDBF7C01BC01990F880B10
S11305F0990B0E943C068E010F5F1F4F22E043E0DF
S11306000E949F06C8010E94C2028AE00E94B202B0
S11306102FEF81EE94E0215080409040E1F700C03C
S11306200000C701CF5ED84D0FB6F894DEBF0FBEF1
S1130630CDBFDF91CF911F910F91FF90EF9008955F
S1130640CF93DF93EC010E94150280E091E00E94B9
S113065096025E9ACE010E94D1025E9882E090E0FA
S1130660DF91CF910895CF93DF93EC018BE091E07C
S11306700E9496025E985F9ACE010E94D1025F9812
S113068083E090E0DF91CF910895CF93DF93CDB7CE
S1130690DEB7C451D7420FB6F894DEBF0FBECDBF4C
S11306A08EE787B91AB880EF8AB98EE384B9559A70
S11306B083E284BD8FEF88BD85E085BDECE7F0E083
S11306C0808180648083EAE7F0E0808183608083B6
S11306D08081806880830E94A50283E08DBB78942A
S11306E00E941C020E94150285E991E00E94960274
S11306F0A12CB12C20E3CE5ED84D2883C251D74221
S113070080E590E0CD5ED84D99838883C351D7426C
S11307100F2EF6E28F2EF2E09F2EF02D0F2EFAE729
S1130720EF2EF12CF02D0F2EF8E76F2E712CF02DFB
S11307300F2EF9E74F2E512CF02D0F2EF0EC2F2E0B
S1130740312CF02DF701808180648083F701808152
S113075086FDFCCFF301C080F2018081D12CD82A20
S1130760CE5ED84DF881C251D742F23391F018F4DD
S1130770F13359F02DC0CE5ED84D2881C251D742F5
S1130780233361F0243379F023C0C6010E94E502CB
S11307901FC081E090E00E9420031AC081E090E035
S11307A00E94330315C087E191E00E9496028FEF07
S11307B09BE7E2E981509040E040E1F700C000008F
S11307C00E941502F1E7CE5ED84DF883C251D7429C
S11307D025E1A21625E0B20609F4E9C06CF59DE412
S11307E0A91694E0B90609F48BC09CF4F9EEAF168F
S11307F0F3E0BF0609F45EC02AEEA21623E0B206B7
S113080009F465C088EEA81683E0B80609F07FC134
S113081044C091EBA91694E0B90609F498C0E2EB40
S1130820AE16E4E0BE0609F49FC0FEE4AF16F4E0A1
S1130830BF0609F06CC171C022EDA21627E0B20612
S113084009F409C17CF490EDA91697E0B90609F4FE
S1130850E8C00CF0F3C0F6E1AF16F5E0BF0609F40A
S1130860B3C055C126E3A21628E0B20609F414C1A8
S11308703CF495E3A91698E0B90609F400C147C110
S1130880E9E9AE16E8E0BE0609F41AC1FAE9AF16C2
S1130890F8E0BF0609F421C13AC183E291E00E9465
S11308A096028FE39CE90197F1F700C000000E94D3
S11308B015023BC180E391E00E949602EFE3FCE95C
S11308C03197F1F700C000000E9415022EC1FFEF1E
S11308D08F1A9F0A8FE391E00E9496022FEF83ED17
S11308E090E3215080409040E1F700C000000E9456
S11308F015020F2EF9EEAF2EF3E0BF2EF02D15C129
S113090087E491E00E949602EFE3FCE93197F1F766
S113091000C000000E94150208C14601F1E08F1AD0
S113092091088FE391E00E9496022FEF83ED90E30C
S1130930215080409040E1F700C000000E94150261
S11309400F2EFDE4AF2EF4E0BF2EF02DEEC085E5B2
S113095091E00E949602EFE3FCE93197F1F700C0C1
S113096000000E941502E1C0CD5ED84D88819981B6
S1130970C351D7420A96CD5ED84D99838883C3511B
S1130980D7428FE391E00E9496029FEFE3EDF0E3FC
S11309909150E040F040E1F700C000000E941502D1
S11309A00F2EF1EBAF2EF4E0BF2EF02DBEC08FE57D
S11309B091E00E9496028FE39CE90197F1F700C051
S11309C000000E941502B1C0CD5ED84DE881F981C6
S11309D0C351D7423A97CD5ED84DF983E883C351CA
S11309E0D742EF2B41F481E090E0CD5ED84D99835E
S11309F08883C351D7428FE391E00E9496029FEF10
S1130A00E3EDF0E39150E040F040E1F700C0000076
S1130A100E9415020F2EF5E1AF2EF5E0BF2EF02D4A
S1130A2084C08CE691E00E9496028FE39CE90197D2
S1130A30F1F700C000000E94150277C084E791E03E
S1130A400E949602EFE3FCE93197F1F700C0000041
S1130A500E9415026AC0CD5ED84D88819981C35128
S1130A60D7426AE070E00E947706CB010E9420031F
S1130A700F2EF1EDAF2EF7E0BF2EF02D56C089E713
S1130A8091E00E9496028FE39CE90197F1F700C080
S1130A9000000E94150249C0CD5ED84D888199811D
S1130AA0C351D7426AE070E00E947706CB010E94EE
S1130AB033030F2EF5E3AF2EF8E0BF2EF02D35C033
S1130AC08FE791E00E949602EFE3FCE93197F1F79A
S1130AD000C000000E94150228C0B6010D2C000CB5
S1130AE0880B990B0E943C068E010F5F1F4F22E07A
S1130AF043E00E949F06C8010E9496028FE39CE98E
S1130B000197F1F700C000000E9415020EC08BE8A7
S1130B1091E00E949602EFE3FCE93197F1F700C0FF
S1130B2000000E941502A12CB12C8C149D0444F4E5
S1130B30CD5ED84D88819981C351D7420E9420034C
S1130B40F101808188233CF40E94BA02CE5ED84D24
S1130B508883C251D742189B14C08FE39CE9019744
S1130B60F1F700C00000189B0CC09FEFA91AB90A46
S1130B70EFEFF3ED20E3E150F0402040E1F700C057
S1130B800000199BDFCD8FE39CE90197F1F700C0CA
S1130B900000199BD7CDC50168EE73E00E9477066B
S1130BA0892B29F498E1A91A9CEFB90A03C0E4E659
S1130BB0AE0EB11CFFEF23ED80E3F15020408040E6
S1130BC0E1F700C00000BECD1F920F920FB60F9246
S1130BD011242F933F934F935F936F937F938F933E
S1130BE09F93AF93BF93EF93FF930E94150286E9FF
S1130BF090E00E943303FF91EF91BF91AF919F91D9
S1130C008F917F916F915F914F913F912F910F90B1
S1130C100FBE0F901F9018951F920F920FB60F9250
S1130C2011242F933F934F935F936F937F938F93ED
S1130C309F93AF93BF93EF93FF930E94150288E9AC
S1130C4091E00E9496028FE39CE90197F1F700C0BE
S1130C500000FF91EF91BF91AF919F918F917F9190
S1130C606F915F914F913F912F910F900FBE0F9015
S1130C701F901895E89409C097FB3EF490958095D1
S1130C80709561957F4F8F4F9F4F9923A9F0F92F4E
S1130C9096E9BB279395F695879577956795B795CC
S1130CA0F111F8CFFAF4BB0F11F460FF1BC06F5FB2
S1130CB07F4F8F4F9F4F16C0882311F096E911C0C4
S1130CC0772321F09EE8872F762F05C0662371F0E5
S1130CD096E8862F70E060E02AF09A95660F771FF9
S1130CE0881FDAF7880F9695879597F9089597FBEB
S1130CF0072E16F4009407D077FD09D00E948B06C6
S1130D0007FC05D03EF4909581959F4F089570950A
S1130D1061957F4F0895AA1BBB1B51E107C0AA1F11
S1130D20BB1FA617B70710F0A61BB70B881F991F88
S1130D305A95A9F780959095BC01CD010895EF923D
S1130D400F931F93CF93DF93E80147FD02C034E074
S1130D5001C034E1042E000C550B57FF03C051951C
S1130D6041955109E32E022F242FAE010E94BF06A4
S1130D70CE01DF91CF911F910F91EF900895A9E0DB
S1130D80B0E0E5ECF6E00C94F7086A01122FB02EFF
S1130D902BE3201720F0FF24F394F00E02C02CE381
S1130DA0F22E0F2D27E0AE014F5F5F4F0E9419080E
S1130DB0BC014981842F8970813031F0E1FC06C087
S1130DC0E0FE06C090E205C09DE203C09BE201C0C4
S1130DD090E05E2D507143FF3CC0911102C083E04E
S1130DE001C084E0811718F4212F281B01C020E0E2
S1130DF051110BC0F601822F30E2882319F0319390
S1130E008150FBCFC20ED11C20E0992329F0D601DA
S1130E109C93F60131966F01C6010396E2FE0AC067
S1130E203EE4D6013C9341E411964C9311971296FB
S1130E303C9306C03EE6F601308341E641833283AB
S1130E40FC01322F40E2332309F442C04193315074
S1130E50FACF42FF44C0911102C083E001C084E094
S1130E60811718F4212F281B01C020E051110BC059
S1130E70F601822F30E2882319F031938150FBCFA1
S1130E80C20ED11C20E0992329F0D6019C93F601CF
S1130E9031966F01C6010396E2FE0BC039E4D60118
S1130EA03C933EE411963C93119736E412963C939E
S1130EB007C039E6F60130833EE6318336E63283F5
S1130EC0FC01322F40E2332319F041933150FBCF20
S1130ED0FC01E20FF11D10828EEF9FEFA6C021E00E
S1130EE030E0911102C020E030E0161617061CF421
S1130EF0FB01319602C0E1E0F0E02E0F3F1FBB2062
S1130F0021F0EB2DF0E0319602C0E0E0F0E02E0F8E
S1130F103F1FE12FF0E02E173F071CF4121B212F77
S1130F2001C020E08E2D887159F4F601822F30E241
S1130F30882319F031938150FBCFC20ED11C20E0DD
S1130F40992329F0D6019C93F60131966F01511132
S1130F500BC0F601822F90E3882319F091938150FE
S1130F60FBCFC20ED11C20E00F2D060F9A81342F27
S1130F70307144FF03C0913309F40150101624F476
S1130F80093018F008E001C001E0AB0177FF02C0AE
S1130F9040E050E0FB01E41BF50BA1E0B0E0AC0F36
S1130FA0BD1FEA0FFB1F8EE2A82E4B01801A910889
S1130FB00B2D10E01195019511094F3FBFEF5B0711
S1130FC021F4D601AC9211966D01641775072CF0CB
S1130FD08416950614F4818101C080E341505109BF
S1130FE03196D60111967D014017510724F0D601A0
S1130FF08C936701E2CF6417750739F4963320F4B4
S1131000953319F4311101C081E3F6018083F701AE
S1131010822F90E2882319F091938150FBCFF7013E
S1131020E20FF11D108280E090E02996ECE00C9430
S11310301309283008F027E03327DA01990F311D0E
S113104087FD916000966105710539F432602E5F69
S11310503D9330E32A95E1F708959F3F30F08038BF
S11310607105610509F03C5F3C5F3D93913008F0E8
S11310708068911DDF93CF931F930F93FF92EF929C
S1131080192F987F9695E92F96959695E90FFF2746
S1131090EE53FF4F99273327EE24FF24A701E701DE
S11310A005900894079428F4360FE71EF81E491F8C
S11310B0511D660F771F881F991F0694A1F705908D
S11310C0079428F4E70EF81E491F561FC11D770F19
S11310D0881F991F661F0694A1F70590079428F4AA
S11310E0F80E491F561FC71FD11D880F991F661F71
S11310F0771F0694A1F70590079420F4490F561F13
S1131100C71FD81F990F661F771F881F0694A9F75A
S113111084911095177041F0D695C79557954795CA
S1131120F794E7941A95C1F7E8E6F0E0689415900F
S1131130159135916591959105907FE27395E1182C
S1131140F10A430B560BC90BD009C0F7E10CF11E91
S1131150431F561FC91FD01D7EF4703311F48A95A6
S1131160E6CFE894015030F0080F0AF40027021784
S113117008F4202F2395022F7A3328F079E37D9306
S11311802A95E9F710C07D932A9589F606949795D8
S11311906795379517951794E118F10A430B560B89
S11311A0C90BD00998F023957E9173957A3308F092
S11311B070E37C932013B8F77E9170617D9330F0D7
S11311C0839571E37D9370E32A95E1F71124EF9001
S11311D0FF900F911F91CF91DF91992787FD9095F3
S11311E008952F923F924F925F926F927F928F92C7
S11311F09F92AF92BF92CF92DF92EF92FF920F93A2
S11312001F93CF93DF93CDB7DEB7CA1BDB0B0FB6AB
S1131210F894DEBF0FBECDBF09942A883988488868
S11312205F846E847D848C849B84AA84B984C884FE
S1131230DF80EE80FD800C811B81AA81B981CE0FF5
S1131240D11D0FB6F894DEBF0FBECDBFED010895DA
S1071250F894FFCF3C
S113125450756D70696E672E2E2E00447261696E2E
S1131264696E672E2E2E0054657374696E672E2E74
S11312742E2E0043616C696272617465202D3E00F8
S11312845761746572696E67206561726C79005583
S1131294706461746564005761746572696E672073
S11312A46C61746500416464203130306D6C0052AB
S11312B4656D6F7665203130306D6C0054657374E0
S11312C4202D3E0050756D7000447261696E0053A8
S11312D4656E736F722056616C3A0057656C636F68
S11312E46D652121202D3E00526566696C6C206277
S10912F475636B657400D4
S9030000FC
